{
  "_format": "hh-sol-artifact-1",
  "contractName": "SubscriptionManager",
  "sourceName": "contracts/SubscriptionManager.sol",
  "abi": [
    {
      "inputs": [
        {
          "internalType": "address",
          "name": "_nftContract",
          "type": "address"
        }
      ],
      "stateMutability": "nonpayable",
      "type": "constructor"
    },
    {
      "inputs": [
        {
          "internalType": "address",
          "name": "owner",
          "type": "address"
        }
      ],
      "name": "OwnableInvalidOwner",
      "type": "error"
    },
    {
      "inputs": [
        {
          "internalType": "address",
          "name": "account",
          "type": "address"
        }
      ],
      "name": "OwnableUnauthorizedAccount",
      "type": "error"
    },
    {
      "inputs": [],
      "name": "ReentrancyGuardReentrantCall",
      "type": "error"
    },
    {
      "anonymous": false,
      "inputs": [
        {
          "indexed": true,
          "internalType": "address",
          "name": "user",
          "type": "address"
        },
        {
          "indexed": false,
          "internalType": "uint256",
          "name": "newBalance",
          "type": "uint256"
        }
      ],
      "name": "BalanceUpdated",
      "type": "event"
    },
    {
      "anonymous": false,
      "inputs": [
        {
          "indexed": true,
          "internalType": "address",
          "name": "user",
          "type": "address"
        },
        {
          "indexed": true,
          "internalType": "uint256",
          "name": "planId",
          "type": "uint256"
        }
      ],
      "name": "Cancelled",
      "type": "event"
    },
    {
      "anonymous": false,
      "inputs": [
        {
          "indexed": true,
          "internalType": "address",
          "name": "previousOwner",
          "type": "address"
        },
        {
          "indexed": true,
          "internalType": "address",
          "name": "newOwner",
          "type": "address"
        }
      ],
      "name": "OwnershipTransferred",
      "type": "event"
    },
    {
      "anonymous": false,
      "inputs": [
        {
          "indexed": true,
          "internalType": "uint256",
          "name": "planId",
          "type": "uint256"
        },
        {
          "indexed": false,
          "internalType": "string",
          "name": "name",
          "type": "string"
        },
        {
          "indexed": false,
          "internalType": "uint256",
          "name": "pricePerSecond",
          "type": "uint256"
        }
      ],
      "name": "PlanCreated",
      "type": "event"
    },
    {
      "anonymous": false,
      "inputs": [
        {
          "indexed": true,
          "internalType": "address",
          "name": "user",
          "type": "address"
        },
        {
          "indexed": true,
          "internalType": "uint256",
          "name": "planId",
          "type": "uint256"
        },
        {
          "indexed": false,
          "internalType": "uint256",
          "name": "amount",
          "type": "uint256"
        }
      ],
      "name": "Subscribed",
      "type": "event"
    },
    {
      "inputs": [],
      "name": "cancel",
      "outputs": [],
      "stateMutability": "nonpayable",
      "type": "function"
    },
    {
      "inputs": [
        {
          "internalType": "address",
          "name": "_user",
          "type": "address"
        }
      ],
      "name": "checkAccess",
      "outputs": [
        {
          "internalType": "bool",
          "name": "",
          "type": "bool"
        }
      ],
      "stateMutability": "view",
      "type": "function"
    },
    {
      "inputs": [
        {
          "internalType": "string",
          "name": "_name",
          "type": "string"
        },
        {
          "internalType": "uint256",
          "name": "_pricePerSecond",
          "type": "uint256"
        }
      ],
      "name": "createPlan",
      "outputs": [],
      "stateMutability": "nonpayable",
      "type": "function"
    },
    {
      "inputs": [
        {
          "internalType": "uint256",
          "name": "_planId",
          "type": "uint256"
        }
      ],
      "name": "getPlan",
      "outputs": [
        {
          "components": [
            {
              "internalType": "uint256",
              "name": "pricePerSecond",
              "type": "uint256"
            },
            {
              "internalType": "bool",
              "name": "active",
              "type": "bool"
            },
            {
              "internalType": "string",
              "name": "name",
              "type": "string"
            }
          ],
          "internalType": "struct SubscriptionManager.Plan",
          "name": "",
          "type": "tuple"
        }
      ],
      "stateMutability": "view",
      "type": "function"
    },
    {
      "inputs": [
        {
          "internalType": "address",
          "name": "_user",
          "type": "address"
        }
      ],
      "name": "getSubscription",
      "outputs": [
        {
          "components": [
            {
              "internalType": "uint256",
              "name": "planId",
              "type": "uint256"
            },
            {
              "internalType": "uint256",
              "name": "balance",
              "type": "uint256"
            },
            {
              "internalType": "uint256",
              "name": "lastUpdate",
              "type": "uint256"
            },
            {
              "internalType": "bool",
              "name": "active",
              "type": "bool"
            }
          ],
          "internalType": "struct SubscriptionManager.Subscription",
          "name": "",
          "type": "tuple"
        }
      ],
      "stateMutability": "view",
      "type": "function"
    },
    {
      "inputs": [],
      "name": "nextPlanId",
      "outputs": [
        {
          "internalType": "uint256",
          "name": "",
          "type": "uint256"
        }
      ],
      "stateMutability": "view",
      "type": "function"
    },
    {
      "inputs": [],
      "name": "nftContract",
      "outputs": [
        {
          "internalType": "contract NFTAccessPass",
          "name": "",
          "type": "address"
        }
      ],
      "stateMutability": "view",
      "type": "function"
    },
    {
      "inputs": [],
      "name": "owner",
      "outputs": [
        {
          "internalType": "address",
          "name": "",
          "type": "address"
        }
      ],
      "stateMutability": "view",
      "type": "function"
    },
    {
      "inputs": [
        {
          "internalType": "uint256",
          "name": "",
          "type": "uint256"
        }
      ],
      "name": "plans",
      "outputs": [
        {
          "internalType": "uint256",
          "name": "pricePerSecond",
          "type": "uint256"
        },
        {
          "internalType": "bool",
          "name": "active",
          "type": "bool"
        },
        {
          "internalType": "string",
          "name": "name",
          "type": "string"
        }
      ],
      "stateMutability": "view",
      "type": "function"
    },
    {
      "inputs": [],
      "name": "renounceOwnership",
      "outputs": [],
      "stateMutability": "nonpayable",
      "type": "function"
    },
    {
      "inputs": [
        {
          "internalType": "uint256",
          "name": "_planId",
          "type": "uint256"
        }
      ],
      "name": "subscribe",
      "outputs": [],
      "stateMutability": "payable",
      "type": "function"
    },
    {
      "inputs": [
        {
          "internalType": "address",
          "name": "",
          "type": "address"
        }
      ],
      "name": "subscriptions",
      "outputs": [
        {
          "internalType": "uint256",
          "name": "planId",
          "type": "uint256"
        },
        {
          "internalType": "uint256",
          "name": "balance",
          "type": "uint256"
        },
        {
          "internalType": "uint256",
          "name": "lastUpdate",
          "type": "uint256"
        },
        {
          "internalType": "bool",
          "name": "active",
          "type": "bool"
        }
      ],
      "stateMutability": "view",
      "type": "function"
    },
    {
      "inputs": [
        {
          "internalType": "address",
          "name": "newOwner",
          "type": "address"
        }
      ],
      "name": "transferOwnership",
      "outputs": [],
      "stateMutability": "nonpayable",
      "type": "function"
    },
    {
      "inputs": [
        {
          "internalType": "address",
          "name": "_user",
          "type": "address"
        }
      ],
      "name": "updateBalance",
      "outputs": [],
      "stateMutability": "nonpayable",
      "type": "function"
    }
  ],
  "bytecode": "0x608060405260016004553480156200001657600080fd5b5060405162001ef238038062001ef283398181016040528101906200003c919062000244565b336001600081905550600073ffffffffffffffffffffffffffffffffffffffff168173ffffffffffffffffffffffffffffffffffffffff1603620000ba5760006040517f1e4fbdf7000000000000000000000000000000000000000000000000000000008152600401620000b1919062000287565b60405180910390fd5b620000cb816200011460201b60201c565b5080600560006101000a81548173ffffffffffffffffffffffffffffffffffffffff021916908373ffffffffffffffffffffffffffffffffffffffff16021790555050620002a4565b6000600160009054906101000a900473ffffffffffffffffffffffffffffffffffffffff16905081600160006101000a81548173ffffffffffffffffffffffffffffffffffffffff021916908373ffffffffffffffffffffffffffffffffffffffff1602179055508173ffffffffffffffffffffffffffffffffffffffff168173ffffffffffffffffffffffffffffffffffffffff167f8be0079c531659141344cd1fd0a4f28419497f9722a3daafe3b4186f6b6457e060405160405180910390a35050565b600080fd5b600073ffffffffffffffffffffffffffffffffffffffff82169050919050565b60006200020c82620001df565b9050919050565b6200021e81620001ff565b81146200022a57600080fd5b50565b6000815190506200023e8162000213565b92915050565b6000602082840312156200025d576200025c620001da565b5b60006200026d848285016200022d565b91505092915050565b6200028181620001ff565b82525050565b60006020820190506200029e600083018462000276565b92915050565b611c3e80620002b46000396000f3fe6080604052600436106100dd5760003560e01c8063715018a61161007f578063d56d229d11610059578063d56d229d146102b3578063ea8a1af0146102de578063f046395a146102f5578063f2fde38b14610335576100dd565b8063715018a6146102325780638da5cb5b14610249578063b162061614610274576100dd565b806340b8405a116100bb57806340b8405a14610178578063466a0146146101a15780634e09bf46146101de5780635f8d26b214610207576100dd565b80630cbebc24146100e25780630f574ba71461011f57806326cd52741461013b575b600080fd5b3480156100ee57600080fd5b506101096004803603810190610104919061111d565b61035e565b60405161011691906111d3565b60405180910390f35b6101396004803603810190610134919061121a565b6103f0565b005b34801561014757600080fd5b50610162600480360381019061015d919061121a565b610642565b60405161016f9190611327565b60405180910390f35b34801561018457600080fd5b5061019f600480360381019061019a919061111d565b610726565b005b3480156101ad57600080fd5b506101c860048036038101906101c3919061111d565b610732565b6040516101d59190611358565b60405180910390f35b3480156101ea57600080fd5b50610205600480360381019061020091906114a8565b61081d565b005b34801561021357600080fd5b5061021c6108f3565b6040516102299190611513565b60405180910390f35b34801561023e57600080fd5b506102476108f9565b005b34801561025557600080fd5b5061025e61090d565b60405161026b919061153d565b60405180910390f35b34801561028057600080fd5b5061029b6004803603810190610296919061121a565b610937565b6040516102aa939291906115a2565b60405180910390f35b3480156102bf57600080fd5b506102c86109f6565b6040516102d5919061163f565b60405180910390f35b3480156102ea57600080fd5b506102f3610a1c565b005b34801561030157600080fd5b5061031c6004803603810190610317919061111d565b610c17565b60405161032c949392919061165a565b60405180910390f35b34801561034157600080fd5b5061035c6004803603810190610357919061111d565b610c54565b005b61036661105e565b600360008373ffffffffffffffffffffffffffffffffffffffff1673ffffffffffffffffffffffffffffffffffffffff1681526020019081526020016000206040518060800160405290816000820154815260200160018201548152602001600282015481526020016003820160009054906101000a900460ff1615151515815250509050919050565b6103f8610cda565b6002600082815260200190815260200160002060010160009054906101000a900460ff1661045b576040517f08c379a0000000000000000000000000000000000000000000000000000000008152600401610452906116eb565b60405180910390fd5b6000341161049e576040517f08c379a000000000000000000000000000000000000000000000000000000000815260040161049590611757565b60405180910390fd5b6000600360003373ffffffffffffffffffffffffffffffffffffffff1673ffffffffffffffffffffffffffffffffffffffff16815260200190815260200160002090508060030160009054906101000a900460ff16156105215761050133610d20565b3481600101600082825461051591906117a6565b925050819055506105e7565b81816000018190555034816001018190555042816002018190555060018160030160006101000a81548160ff021916908315150217905550600560009054906101000a900473ffffffffffffffffffffffffffffffffffffffff1673ffffffffffffffffffffffffffffffffffffffff16636a627842336040518263ffffffff1660e01b81526004016105b4919061153d565b600060405180830381600087803b1580156105ce57600080fd5b505af11580156105e2573d6000803e3d6000fd5b505050505b813373ffffffffffffffffffffffffffffffffffffffff167ff94991dcbea6e8ac439cbc93bd9c62a4d39f04e0ad656df9a703f13552c2787f3460405161062e9190611513565b60405180910390a35061063f610eff565b50565b61064a611088565b60026000838152602001908152602001600020604051806060016040529081600082015481526020016001820160009054906101000a900460ff1615151515815260200160028201805461069d90611809565b80601f01602080910402602001604051908101604052809291908181526020018280546106c990611809565b80156107165780601f106106eb57610100808354040283529160200191610716565b820191906000526020600020905b8154815290600101906020018083116106f957829003601f168201915b5050505050815250509050919050565b61072f81610d20565b50565b600080600360008473ffffffffffffffffffffffffffffffffffffffff1673ffffffffffffffffffffffffffffffffffffffff1681526020019081526020016000206040518060800160405290816000820154815260200160018201548152602001600282015481526020016003820160009054906101000a900460ff161515151581525050905080606001516107cd576000915050610818565b60008160400151426107df919061183a565b9050600060026000846000015181526020019081526020016000206000015482610809919061186e565b90508260200151811093505050505b919050565b610825610f09565b6040518060600160405280828152602001600115158152602001838152506002600060045481526020019081526020016000206000820151816000015560208201518160010160006101000a81548160ff02191690831515021790555060408201518160020190816108979190611a52565b509050506004547f135a65e1936006594178a9666e5ddf1d2099f18e72674253a206ed70ade01cc983836040516108cf929190611b24565b60405180910390a2600460008154809291906108ea90611b54565b91905055505050565b60045481565b610901610f09565b61090b6000610f90565b565b6000600160009054906101000a900473ffffffffffffffffffffffffffffffffffffffff16905090565b60026020528060005260406000206000915090508060000154908060010160009054906101000a900460ff169080600201805461097390611809565b80601f016020809104026020016040519081016040528092919081815260200182805461099f90611809565b80156109ec5780601f106109c1576101008083540402835291602001916109ec565b820191906000526020600020905b8154815290600101906020018083116109cf57829003601f168201915b5050505050905083565b600560009054906101000a900473ffffffffffffffffffffffffffffffffffffffff1681565b610a24610cda565b6000600360003373ffffffffffffffffffffffffffffffffffffffff1673ffffffffffffffffffffffffffffffffffffffff16815260200190815260200160002090508060030160009054906101000a900460ff16610ab8576040517f08c379a0000000000000000000000000000000000000000000000000000000008152600401610aaf90611be8565b60405180910390fd5b610ac133610d20565b600081600101541115610b1a573373ffffffffffffffffffffffffffffffffffffffff166108fc82600101549081150290604051600060405180830381858888f19350505050158015610b18573d6000803e3d6000fd5b505b60008160030160006101000a81548160ff021916908315150217905550600560009054906101000a900473ffffffffffffffffffffffffffffffffffffffff1673ffffffffffffffffffffffffffffffffffffffff166389afcb44336040518263ffffffff1660e01b8152600401610b92919061153d565b600060405180830381600087803b158015610bac57600080fd5b505af1158015610bc0573d6000803e3d6000fd5b5050505080600001543373ffffffffffffffffffffffffffffffffffffffff167f36ea5cd5608625e789af0282eecdb4eae1cb7c1cf6d0ec3f9a84f35be850260b60405160405180910390a350610c15610eff565b565b60036020528060005260406000206000915090508060000154908060010154908060020154908060030160009054906101000a900460ff16905084565b610c5c610f09565b600073ffffffffffffffffffffffffffffffffffffffff168173ffffffffffffffffffffffffffffffffffffffff1603610cce5760006040517f1e4fbdf7000000000000000000000000000000000000000000000000000000008152600401610cc5919061153d565b60405180910390fd5b610cd781610f90565b50565b600260005403610d16576040517f3ee5aeb500000000000000000000000000000000000000000000000000000000815260040160405180910390fd5b6002600081905550565b6000600360008373ffffffffffffffffffffffffffffffffffffffff1673ffffffffffffffffffffffffffffffffffffffff16815260200190815260200160002090508060030160009054906101000a900460ff16610d7f5750610efc565b6000816002015442610d91919061183a565b9050600060026000846000015481526020019081526020016000206000015482610dbb919061186e565b905082600101548110610e81576000836001018190555060008360030160006101000a81548160ff021916908315150217905550600560009054906101000a900473ffffffffffffffffffffffffffffffffffffffff1673ffffffffffffffffffffffffffffffffffffffff166389afcb44856040518263ffffffff1660e01b8152600401610e4a919061153d565b600060405180830381600087803b158015610e6457600080fd5b505af1158015610e78573d6000803e3d6000fd5b50505050610e9d565b80836001016000828254610e95919061183a565b925050819055505b4283600201819055508373ffffffffffffffffffffffffffffffffffffffff167f8ad64a0ac7700dd8425ab0499f107cb6e2cd1581d803c5b8c1c79dcb8190b1af8460010154604051610ef09190611513565b60405180910390a25050505b50565b6001600081905550565b610f11611056565b73ffffffffffffffffffffffffffffffffffffffff16610f2f61090d565b73ffffffffffffffffffffffffffffffffffffffff1614610f8e57610f52611056565b6040517f118cdaa7000000000000000000000000000000000000000000000000000000008152600401610f85919061153d565b60405180910390fd5b565b6000600160009054906101000a900473ffffffffffffffffffffffffffffffffffffffff16905081600160006101000a81548173ffffffffffffffffffffffffffffffffffffffff021916908373ffffffffffffffffffffffffffffffffffffffff1602179055508173ffffffffffffffffffffffffffffffffffffffff168173ffffffffffffffffffffffffffffffffffffffff167f8be0079c531659141344cd1fd0a4f28419497f9722a3daafe3b4186f6b6457e060405160405180910390a35050565b600033905090565b60405180608001604052806000815260200160008152602001600081526020016000151581525090565b604051806060016040528060008152602001600015158152602001606081525090565b6000604051905090565b600080fd5b600080fd5b600073ffffffffffffffffffffffffffffffffffffffff82169050919050565b60006110ea826110bf565b9050919050565b6110fa816110df565b811461110557600080fd5b50565b600081359050611117816110f1565b92915050565b600060208284031215611133576111326110b5565b5b600061114184828501611108565b91505092915050565b6000819050919050565b61115d8161114a565b82525050565b60008115159050919050565b61117881611163565b82525050565b6080820160008201516111946000850182611154565b5060208201516111a76020850182611154565b5060408201516111ba6040850182611154565b5060608201516111cd606085018261116f565b50505050565b60006080820190506111e8600083018461117e565b92915050565b6111f78161114a565b811461120257600080fd5b50565b600081359050611214816111ee565b92915050565b6000602082840312156112305761122f6110b5565b5b600061123e84828501611205565b91505092915050565b600081519050919050565b600082825260208201905092915050565b60005b83811015611281578082015181840152602081019050611266565b60008484015250505050565b6000601f19601f8301169050919050565b60006112a982611247565b6112b38185611252565b93506112c3818560208601611263565b6112cc8161128d565b840191505092915050565b60006060830160008301516112ef6000860182611154565b506020830151611302602086018261116f565b506040830151848203604086015261131a828261129e565b9150508091505092915050565b6000602082019050818103600083015261134181846112d7565b905092915050565b61135281611163565b82525050565b600060208201905061136d6000830184611349565b92915050565b600080fd5b600080fd5b7f4e487b7100000000000000000000000000000000000000000000000000000000600052604160045260246000fd5b6113b58261128d565b810181811067ffffffffffffffff821117156113d4576113d361137d565b5b80604052505050565b60006113e76110ab565b90506113f382826113ac565b919050565b600067ffffffffffffffff8211156114135761141261137d565b5b61141c8261128d565b9050602081019050919050565b82818337600083830152505050565b600061144b611446846113f8565b6113dd565b90508281526020810184848401111561146757611466611378565b5b611472848285611429565b509392505050565b600082601f83011261148f5761148e611373565b5b813561149f848260208601611438565b91505092915050565b600080604083850312156114bf576114be6110b5565b5b600083013567ffffffffffffffff8111156114dd576114dc6110ba565b5b6114e98582860161147a565b92505060206114fa85828601611205565b9150509250929050565b61150d8161114a565b82525050565b60006020820190506115286000830184611504565b92915050565b611537816110df565b82525050565b6000602082019050611552600083018461152e565b92915050565b600082825260208201905092915050565b600061157482611247565b61157e8185611558565b935061158e818560208601611263565b6115978161128d565b840191505092915050565b60006060820190506115b76000830186611504565b6115c46020830185611349565b81810360408301526115d68184611569565b9050949350505050565b6000819050919050565b60006116056116006115fb846110bf565b6115e0565b6110bf565b9050919050565b6000611617826115ea565b9050919050565b60006116298261160c565b9050919050565b6116398161161e565b82525050565b60006020820190506116546000830184611630565b92915050565b600060808201905061166f6000830187611504565b61167c6020830186611504565b6116896040830185611504565b6116966060830184611349565b95945050505050565b7f506c616e206e6f74206163746976650000000000000000000000000000000000600082015250565b60006116d5600f83611558565b91506116e08261169f565b602082019050919050565b60006020820190508181036000830152611704816116c8565b9050919050565b7f4d7573742073656e64207061796d656e74000000000000000000000000000000600082015250565b6000611741601183611558565b915061174c8261170b565b602082019050919050565b6000602082019050818103600083015261177081611734565b9050919050565b7f4e487b7100000000000000000000000000000000000000000000000000000000600052601160045260246000fd5b60006117b18261114a565b91506117bc8361114a565b92508282019050808211156117d4576117d3611777565b5b92915050565b7f4e487b7100000000000000000000000000000000000000000000000000000000600052602260045260246000fd5b6000600282049050600182168061182157607f821691505b602082108103611834576118336117da565b5b50919050565b60006118458261114a565b91506118508361114a565b925082820390508181111561186857611867611777565b5b92915050565b60006118798261114a565b91506118848361114a565b92508282026118928161114a565b915082820484148315176118a9576118a8611777565b5b5092915050565b60008190508160005260206000209050919050565b60006020601f8301049050919050565b600082821b905092915050565b6000600883026119127fffffffffffffffffffffffffffffffffffffffffffffffffffffffffffffffff826118d5565b61191c86836118d5565b95508019841693508086168417925050509392505050565b600061194f61194a6119458461114a565b6115e0565b61114a565b9050919050565b6000819050919050565b61196983611934565b61197d61197582611956565b8484546118e2565b825550505050565b600090565b611992611985565b61199d818484611960565b505050565b5b818110156119c1576119b660008261198a565b6001810190506119a3565b5050565b601f821115611a06576119d7816118b0565b6119e0846118c5565b810160208510156119ef578190505b611a036119fb856118c5565b8301826119a2565b50505b505050565b600082821c905092915050565b6000611a2960001984600802611a0b565b1980831691505092915050565b6000611a428383611a18565b9150826002028217905092915050565b611a5b82611247565b67ffffffffffffffff811115611a7457611a7361137d565b5b611a7e8254611809565b611a898282856119c5565b600060209050601f831160018114611abc5760008415611aaa578287015190505b611ab48582611a36565b865550611b1c565b601f198416611aca866118b0565b60005b82811015611af257848901518255600182019150602085019450602081019050611acd565b86831015611b0f5784890151611b0b601f891682611a18565b8355505b6001600288020188555050505b505050505050565b60006040820190508181036000830152611b3e8185611569565b9050611b4d6020830184611504565b9392505050565b6000611b5f8261114a565b91507fffffffffffffffffffffffffffffffffffffffffffffffffffffffffffffffff8203611b9157611b90611777565b5b600182019050919050565b7f4e6f2061637469766520737562736372697074696f6e00000000000000000000600082015250565b6000611bd2601683611558565b9150611bdd82611b9c565b602082019050919050565b60006020820190508181036000830152611c0181611bc5565b905091905056fea2646970667358221220806ee193eed4072cbf41a6ab2190e5f44c277940012a4c530693f40e8b41bfd064736f6c63430008140033",
  "linkReferences": {},
  "deployedLinkReferences": {}
}