{
  "_format": "hh-sol-artifact-1",
  "contractName": "NFTAccessPass",
  "sourceName": "contracts/NFTAccessPass.sol",
  "abi": [
    {
      "inputs": [],
      "stateMutability": "nonpayable",
      "type": "constructor"
    },
    {
      "inputs": [
        {
          "internalType": "address",
          "name": "sender",
          "type": "address"
        },
        {
          "internalType": "uint256",
          "name": "tokenId",
          "type": "uint256"
        },
        {
          "internalType": "address",
          "name": "owner",
          "type": "address"
        }
      ],
      "name": "ERC721IncorrectOwner",
      "type": "error"
    },
    {
      "inputs": [
        {
          "internalType": "address",
          "name": "operator",
          "type": "address"
        },
        {
          "internalType": "uint256",
          "name": "tokenId",
          "type": "uint256"
        }
      ],
      "name": "ERC721InsufficientApproval",
      "type": "error"
    },
    {
      "inputs": [
        {
          "internalType": "address",
          "name": "approver",
          "type": "address"
        }
      ],
      "name": "ERC721InvalidApprover",
      "type": "error"
    },
    {
      "inputs": [
        {
          "internalType": "address",
          "name": "operator",
          "type": "address"
        }
      ],
      "name": "ERC721InvalidOperator",
      "type": "error"
    },
    {
      "inputs": [
        {
          "internalType": "address",
          "name": "owner",
          "type": "address"
        }
      ],
      "name": "ERC721InvalidOwner",
      "type": "error"
    },
    {
      "inputs": [
        {
          "internalType": "address",
          "name": "receiver",
          "type": "address"
        }
      ],
      "name": "ERC721InvalidReceiver",
      "type": "error"
    },
    {
      "inputs": [
        {
          "internalType": "address",
          "name": "sender",
          "type": "address"
        }
      ],
      "name": "ERC721InvalidSender",
      "type": "error"
    },
    {
      "inputs": [
        {
          "internalType": "uint256",
          "name": "tokenId",
          "type": "uint256"
        }
      ],
      "name": "ERC721NonexistentToken",
      "type": "error"
    },
    {
      "inputs": [
        {
          "internalType": "address",
          "name": "owner",
          "type": "address"
        }
      ],
      "name": "OwnableInvalidOwner",
      "type": "error"
    },
    {
      "inputs": [
        {
          "internalType": "address",
          "name": "account",
          "type": "address"
        }
      ],
      "name": "OwnableUnauthorizedAccount",
      "type": "error"
    },
    {
      "anonymous": false,
      "inputs": [
        {
          "indexed": true,
          "internalType": "address",
          "name": "owner",
          "type": "address"
        },
        {
          "indexed": true,
          "internalType": "address",
          "name": "approved",
          "type": "address"
        },
        {
          "indexed": true,
          "internalType": "uint256",
          "name": "tokenId",
          "type": "uint256"
        }
      ],
      "name": "Approval",
      "type": "event"
    },
    {
      "anonymous": false,
      "inputs": [
        {
          "indexed": true,
          "internalType": "address",
          "name": "owner",
          "type": "address"
        },
        {
          "indexed": true,
          "internalType": "address",
          "name": "operator",
          "type": "address"
        },
        {
          "indexed": false,
          "internalType": "bool",
          "name": "approved",
          "type": "bool"
        }
      ],
      "name": "ApprovalForAll",
      "type": "event"
    },
    {
      "anonymous": false,
      "inputs": [
        {
          "indexed": true,
          "internalType": "address",
          "name": "previousOwner",
          "type": "address"
        },
        {
          "indexed": true,
          "internalType": "address",
          "name": "newOwner",
          "type": "address"
        }
      ],
      "name": "OwnershipTransferred",
      "type": "event"
    },
    {
      "anonymous": false,
      "inputs": [
        {
          "indexed": true,
          "internalType": "address",
          "name": "from",
          "type": "address"
        },
        {
          "indexed": true,
          "internalType": "address",
          "name": "to",
          "type": "address"
        },
        {
          "indexed": true,
          "internalType": "uint256",
          "name": "tokenId",
          "type": "uint256"
        }
      ],
      "name": "Transfer",
      "type": "event"
    },
    {
      "inputs": [
        {
          "internalType": "address",
          "name": "to",
          "type": "address"
        },
        {
          "internalType": "uint256",
          "name": "tokenId",
          "type": "uint256"
        }
      ],
      "name": "approve",
      "outputs": [],
      "stateMutability": "nonpayable",
      "type": "function"
    },
    {
      "inputs": [
        {
          "internalType": "address",
          "name": "owner",
          "type": "address"
        }
      ],
      "name": "balanceOf",
      "outputs": [
        {
          "internalType": "uint256",
          "name": "",
          "type": "uint256"
        }
      ],
      "stateMutability": "view",
      "type": "function"
    },
    {
      "inputs": [
        {
          "internalType": "address",
          "name": "_user",
          "type": "address"
        }
      ],
      "name": "burn",
      "outputs": [],
      "stateMutability": "nonpayable",
      "type": "function"
    },
    {
      "inputs": [
        {
          "internalType": "uint256",
          "name": "tokenId",
          "type": "uint256"
        }
      ],
      "name": "getApproved",
      "outputs": [
        {
          "internalType": "address",
          "name": "",
          "type": "address"
        }
      ],
      "stateMutability": "view",
      "type": "function"
    },
    {
      "inputs": [
        {
          "internalType": "address",
          "name": "_user",
          "type": "address"
        }
      ],
      "name": "hasAccess",
      "outputs": [
        {
          "internalType": "bool",
          "name": "",
          "type": "bool"
        }
      ],
      "stateMutability": "view",
      "type": "function"
    },
    {
      "inputs": [
        {
          "internalType": "address",
          "name": "owner",
          "type": "address"
        },
        {
          "internalType": "address",
          "name": "operator",
          "type": "address"
        }
      ],
      "name": "isApprovedForAll",
      "outputs": [
        {
          "internalType": "bool",
          "name": "",
          "type": "bool"
        }
      ],
      "stateMutability": "view",
      "type": "function"
    },
    {
      "inputs": [
        {
          "internalType": "address",
          "name": "_to",
          "type": "address"
        }
      ],
      "name": "mint",
      "outputs": [],
      "stateMutability": "nonpayable",
      "type": "function"
    },
    {
      "inputs": [],
      "name": "name",
      "outputs": [
        {
          "internalType": "string",
          "name": "",
          "type": "string"
        }
      ],
      "stateMutability": "view",
      "type": "function"
    },
    {
      "inputs": [],
      "name": "owner",
      "outputs": [
        {
          "internalType": "address",
          "name": "",
          "type": "address"
        }
      ],
      "stateMutability": "view",
      "type": "function"
    },
    {
      "inputs": [
        {
          "internalType": "uint256",
          "name": "tokenId",
          "type": "uint256"
        }
      ],
      "name": "ownerOf",
      "outputs": [
        {
          "internalType": "address",
          "name": "",
          "type": "address"
        }
      ],
      "stateMutability": "view",
      "type": "function"
    },
    {
      "inputs": [],
      "name": "renounceOwnership",
      "outputs": [],
      "stateMutability": "nonpayable",
      "type": "function"
    },
    {
      "inputs": [
        {
          "internalType": "address",
          "name": "from",
          "type": "address"
        },
        {
          "internalType": "address",
          "name": "to",
          "type": "address"
        },
        {
          "internalType": "uint256",
          "name": "tokenId",
          "type": "uint256"
        }
      ],
      "name": "safeTransferFrom",
      "outputs": [],
      "stateMutability": "nonpayable",
      "type": "function"
    },
    {
      "inputs": [
        {
          "internalType": "address",
          "name": "from",
          "type": "address"
        },
        {
          "internalType": "address",
          "name": "to",
          "type": "address"
        },
        {
          "internalType": "uint256",
          "name": "tokenId",
          "type": "uint256"
        },
        {
          "internalType": "bytes",
          "name": "data",
          "type": "bytes"
        }
      ],
      "name": "safeTransferFrom",
      "outputs": [],
      "stateMutability": "nonpayable",
      "type": "function"
    },
    {
      "inputs": [
        {
          "internalType": "address",
          "name": "operator",
          "type": "address"
        },
        {
          "internalType": "bool",
          "name": "approved",
          "type": "bool"
        }
      ],
      "name": "setApprovalForAll",
      "outputs": [],
      "stateMutability": "nonpayable",
      "type": "function"
    },
    {
      "inputs": [
        {
          "internalType": "address",
          "name": "_manager",
          "type": "address"
        }
      ],
      "name": "setSubscriptionManager",
      "outputs": [],
      "stateMutability": "nonpayable",
      "type": "function"
    },
    {
      "inputs": [],
      "name": "subscriptionManager",
      "outputs": [
        {
          "internalType": "address",
          "name": "",
          "type": "address"
        }
      ],
      "stateMutability": "view",
      "type": "function"
    },
    {
      "inputs": [
        {
          "internalType": "bytes4",
          "name": "interfaceId",
          "type": "bytes4"
        }
      ],
      "name": "supportsInterface",
      "outputs": [
        {
          "internalType": "bool",
          "name": "",
          "type": "bool"
        }
      ],
      "stateMutability": "view",
      "type": "function"
    },
    {
      "inputs": [],
      "name": "symbol",
      "outputs": [
        {
          "internalType": "string",
          "name": "",
          "type": "string"
        }
      ],
      "stateMutability": "view",
      "type": "function"
    },
    {
      "inputs": [
        {
          "internalType": "uint256",
          "name": "tokenId",
          "type": "uint256"
        }
      ],
      "name": "tokenURI",
      "outputs": [
        {
          "internalType": "string",
          "name": "",
          "type": "string"
        }
      ],
      "stateMutability": "pure",
      "type": "function"
    },
    {
      "inputs": [
        {
          "internalType": "address",
          "name": "from",
          "type": "address"
        },
        {
          "internalType": "address",
          "name": "to",
          "type": "address"
        },
        {
          "internalType": "uint256",
          "name": "tokenId",
          "type": "uint256"
        }
      ],
      "name": "transferFrom",
      "outputs": [],
      "stateMutability": "nonpayable",
      "type": "function"
    },
    {
      "inputs": [
        {
          "internalType": "address",
          "name": "newOwner",
          "type": "address"
        }
      ],
      "name": "transferOwnership",
      "outputs": [],
      "stateMutability": "nonpayable",
      "type": "function"
    },
    {
      "inputs": [
        {
          "internalType": "address",
          "name": "",
          "type": "address"
        }
      ],
      "name": "userTokens",
      "outputs": [
        {
          "internalType": "uint256",
          "name": "",
          "type": "uint256"
        }
      ],
      "stateMutability": "view",
      "type": "function"
    }
  ],
  "bytecode": "0x608060405260016007553480156200001657600080fd5b50336040518060400160405280600f81526020017f55535020416363657373205061737300000000000000000000000000000000008152506040518060400160405280600581526020017f5553504150000000000000000000000000000000000000000000000000000000815250816000908162000095919062000477565b508060019081620000a7919062000477565b505050600073ffffffffffffffffffffffffffffffffffffffff168173ffffffffffffffffffffffffffffffffffffffff16036200011f5760006040517f1e4fbdf7000000000000000000000000000000000000000000000000000000008152600401620001169190620005a3565b60405180910390fd5b62000130816200013760201b60201c565b50620005c0565b6000600660009054906101000a900473ffffffffffffffffffffffffffffffffffffffff16905081600660006101000a81548173ffffffffffffffffffffffffffffffffffffffff021916908373ffffffffffffffffffffffffffffffffffffffff1602179055508173ffffffffffffffffffffffffffffffffffffffff168173ffffffffffffffffffffffffffffffffffffffff167f8be0079c531659141344cd1fd0a4f28419497f9722a3daafe3b4186f6b6457e060405160405180910390a35050565b600081519050919050565b7f4e487b7100000000000000000000000000000000000000000000000000000000600052604160045260246000fd5b7f4e487b7100000000000000000000000000000000000000000000000000000000600052602260045260246000fd5b600060028204905060018216806200027f57607f821691505b60208210810362000295576200029462000237565b5b50919050565b60008190508160005260206000209050919050565b60006020601f8301049050919050565b600082821b905092915050565b600060088302620002ff7fffffffffffffffffffffffffffffffffffffffffffffffffffffffffffffffff82620002c0565b6200030b8683620002c0565b95508019841693508086168417925050509392505050565b6000819050919050565b6000819050919050565b600062000358620003526200034c8462000323565b6200032d565b62000323565b9050919050565b6000819050919050565b620003748362000337565b6200038c62000383826200035f565b848454620002cd565b825550505050565b600090565b620003a362000394565b620003b081848462000369565b505050565b5b81811015620003d857620003cc60008262000399565b600181019050620003b6565b5050565b601f8211156200042757620003f1816200029b565b620003fc84620002b0565b810160208510156200040c578190505b620004246200041b85620002b0565b830182620003b5565b50505b505050565b600082821c905092915050565b60006200044c600019846008026200042c565b1980831691505092915050565b600062000467838362000439565b9150826002028217905092915050565b6200048282620001fd565b67ffffffffffffffff8111156200049e576200049d62000208565b5b620004aa825462000266565b620004b7828285620003dc565b600060209050601f831160018114620004ef5760008415620004da578287015190505b620004e6858262000459565b86555062000556565b601f198416620004ff866200029b565b60005b82811015620005295784890151825560018201915060208501945060208101905062000502565b8683101562000549578489015162000545601f89168262000439565b8355505b6001600288020188555050505b505050505050565b600073ffffffffffffffffffffffffffffffffffffffff82169050919050565b60006200058b826200055e565b9050919050565b6200059d816200057e565b82525050565b6000602082019050620005ba600083018462000592565b92915050565b6125bc80620005d06000396000f3fe608060405234801561001057600080fd5b50600436106101425760003560e01c80638da5cb5b116100b8578063bf158fd21161007c578063bf158fd21461035f578063c05b35851461037d578063c87b56dd14610399578063e985e9c5146103c9578063ed498fa8146103f9578063f2fde38b1461042957610142565b80638da5cb5b146102bb57806395a078e8146102d957806395d89b4114610309578063a22cb46514610327578063b88d4fde1461034357610142565b806342842e0e1161010a57806342842e0e146101fd5780636352211e146102195780636a6278421461024957806370a0823114610265578063715018a61461029557806389afcb441461029f57610142565b806301ffc9a71461014757806306fdde0314610177578063081812fc14610195578063095ea7b3146101c557806323b872dd146101e1575b600080fd5b610161600480360381019061015c9190611ae9565b610445565b60405161016e9190611b31565b60405180910390f35b61017f610527565b60405161018c9190611bdc565b60405180910390f35b6101af60048036038101906101aa9190611c34565b6105b9565b6040516101bc9190611ca2565b60405180910390f35b6101df60048036038101906101da9190611ce9565b6105d5565b005b6101fb60048036038101906101f69190611d29565b6105eb565b005b61021760048036038101906102129190611d29565b6106ed565b005b610233600480360381019061022e9190611c34565b61070d565b6040516102409190611ca2565b60405180910390f35b610263600480360381019061025e9190611d7c565b61071f565b005b61027f600480360381019061027a9190611d7c565b61089e565b60405161028c9190611db8565b60405180910390f35b61029d610958565b005b6102b960048036038101906102b49190611d7c565b61096c565b005b6102c3610a9c565b6040516102d09190611ca2565b60405180910390f35b6102f360048036038101906102ee9190611d7c565b610ac6565b6040516103009190611b31565b60405180910390f35b610311610b11565b60405161031e9190611bdc565b60405180910390f35b610341600480360381019061033c9190611dff565b610ba3565b005b61035d60048036038101906103589190611f74565b610bb9565b005b610367610bde565b6040516103749190611ca2565b60405180910390f35b61039760048036038101906103929190611d7c565b610c04565b005b6103b360048036038101906103ae9190611c34565b610c50565b6040516103c09190611bdc565b60405180910390f35b6103e360048036038101906103de9190611ff7565b610c75565b6040516103f09190611b31565b60405180910390f35b610413600480360381019061040e9190611d7c565b610d09565b6040516104209190611db8565b60405180910390f35b610443600480360381019061043e9190611d7c565b610d21565b005b60007f80ac58cd000000000000000000000000000000000000000000000000000000007bffffffffffffffffffffffffffffffffffffffffffffffffffffffff1916827bffffffffffffffffffffffffffffffffffffffffffffffffffffffff1916148061051057507f5b5e139f000000000000000000000000000000000000000000000000000000007bffffffffffffffffffffffffffffffffffffffffffffffffffffffff1916827bffffffffffffffffffffffffffffffffffffffffffffffffffffffff1916145b80610520575061051f82610da7565b5b9050919050565b60606000805461053690612066565b80601f016020809104026020016040519081016040528092919081815260200182805461056290612066565b80156105af5780601f10610584576101008083540402835291602001916105af565b820191906000526020600020905b81548152906001019060200180831161059257829003601f168201915b5050505050905090565b60006105c482610e11565b506105ce82610e99565b9050919050565b6105e782826105e2610ed6565b610ede565b5050565b600073ffffffffffffffffffffffffffffffffffffffff168273ffffffffffffffffffffffffffffffffffffffff160361065d5760006040517f64a0ae920000000000000000000000000000000000000000000000000000000081526004016106549190611ca2565b60405180910390fd5b6000610671838361066c610ed6565b610ef0565b90508373ffffffffffffffffffffffffffffffffffffffff168173ffffffffffffffffffffffffffffffffffffffff16146106e7578382826040517f64283d7b0000000000000000000000000000000000000000000000000000000081526004016106de93929190612097565b60405180910390fd5b50505050565b61070883838360405180602001604052806000815250610bb9565b505050565b600061071882610e11565b9050919050565b600960009054906101000a900473ffffffffffffffffffffffffffffffffffffffff1673ffffffffffffffffffffffffffffffffffffffff163373ffffffffffffffffffffffffffffffffffffffff16146107af576040517f08c379a00000000000000000000000000000000000000000000000000000000081526004016107a69061211a565b60405180910390fd5b6000600860008373ffffffffffffffffffffffffffffffffffffffff1673ffffffffffffffffffffffffffffffffffffffff1681526020019081526020016000205414610831576040517f08c379a000000000000000000000000000000000000000000000000000000000815260040161082890612186565b60405180910390fd5b600060076000815480929190610846906121d5565b91905055905080600860008473ffffffffffffffffffffffffffffffffffffffff1673ffffffffffffffffffffffffffffffffffffffff1681526020019081526020016000208190555061089a828261110a565b5050565b60008073ffffffffffffffffffffffffffffffffffffffff168273ffffffffffffffffffffffffffffffffffffffff16036109115760006040517f89c62b640000000000000000000000000000000000000000000000000000000081526004016109089190611ca2565b60405180910390fd5b600360008373ffffffffffffffffffffffffffffffffffffffff1673ffffffffffffffffffffffffffffffffffffffff168152602001908152602001600020549050919050565b610960611203565b61096a600061128a565b565b600960009054906101000a900473ffffffffffffffffffffffffffffffffffffffff1673ffffffffffffffffffffffffffffffffffffffff163373ffffffffffffffffffffffffffffffffffffffff16146109fc576040517f08c379a00000000000000000000000000000000000000000000000000000000081526004016109f39061211a565b60405180910390fd5b6000600860008373ffffffffffffffffffffffffffffffffffffffff1673ffffffffffffffffffffffffffffffffffffffff1681526020019081526020016000205490506000811115610a98576000600860008473ffffffffffffffffffffffffffffffffffffffff1673ffffffffffffffffffffffffffffffffffffffff16815260200190815260200160002081905550610a9781611350565b5b5050565b6000600660009054906101000a900473ffffffffffffffffffffffffffffffffffffffff16905090565b600080600860008473ffffffffffffffffffffffffffffffffffffffff1673ffffffffffffffffffffffffffffffffffffffff16815260200190815260200160002054119050919050565b606060018054610b2090612066565b80601f0160208091040260200160405190810160405280929190818152602001828054610b4c90612066565b8015610b995780601f10610b6e57610100808354040283529160200191610b99565b820191906000526020600020905b815481529060010190602001808311610b7c57829003601f168201915b5050505050905090565b610bb5610bae610ed6565b83836113d6565b5050565b610bc48484846105eb565b610bd8610bcf610ed6565b85858585611545565b50505050565b600960009054906101000a900473ffffffffffffffffffffffffffffffffffffffff1681565b610c0c611203565b80600960006101000a81548173ffffffffffffffffffffffffffffffffffffffff021916908373ffffffffffffffffffffffffffffffffffffffff16021790555050565b606060405180610280016040528061025d815260200161232a61025d91399050919050565b6000600560008473ffffffffffffffffffffffffffffffffffffffff1673ffffffffffffffffffffffffffffffffffffffff16815260200190815260200160002060008373ffffffffffffffffffffffffffffffffffffffff1673ffffffffffffffffffffffffffffffffffffffff16815260200190815260200160002060009054906101000a900460ff16905092915050565b60086020528060005260406000206000915090505481565b610d29611203565b600073ffffffffffffffffffffffffffffffffffffffff168173ffffffffffffffffffffffffffffffffffffffff1603610d9b5760006040517f1e4fbdf7000000000000000000000000000000000000000000000000000000008152600401610d929190611ca2565b60405180910390fd5b610da48161128a565b50565b60007f01ffc9a7000000000000000000000000000000000000000000000000000000007bffffffffffffffffffffffffffffffffffffffffffffffffffffffff1916827bffffffffffffffffffffffffffffffffffffffffffffffffffffffff1916149050919050565b600080610e1d836116f6565b9050600073ffffffffffffffffffffffffffffffffffffffff168173ffffffffffffffffffffffffffffffffffffffff1603610e9057826040517f7e273289000000000000000000000000000000000000000000000000000000008152600401610e879190611db8565b60405180910390fd5b80915050919050565b60006004600083815260200190815260200160002060009054906101000a900473ffffffffffffffffffffffffffffffffffffffff169050919050565b600033905090565b610eeb8383836001611733565b505050565b600080610efc846116f6565b9050600073ffffffffffffffffffffffffffffffffffffffff168373ffffffffffffffffffffffffffffffffffffffff1614610f3e57610f3d8184866118f8565b5b600073ffffffffffffffffffffffffffffffffffffffff168173ffffffffffffffffffffffffffffffffffffffff1614610fcf57610f80600085600080611733565b6001600360008373ffffffffffffffffffffffffffffffffffffffff1673ffffffffffffffffffffffffffffffffffffffff168152602001908152602001600020600082825403925050819055505b600073ffffffffffffffffffffffffffffffffffffffff168573ffffffffffffffffffffffffffffffffffffffff1614611052576001600360008773ffffffffffffffffffffffffffffffffffffffff1673ffffffffffffffffffffffffffffffffffffffff168152602001908152602001600020600082825401925050819055505b846002600086815260200190815260200160002060006101000a81548173ffffffffffffffffffffffffffffffffffffffff021916908373ffffffffffffffffffffffffffffffffffffffff160217905550838573ffffffffffffffffffffffffffffffffffffffff168273ffffffffffffffffffffffffffffffffffffffff167fddf252ad1be2c89b69c2b068fc378daa952ba7f163c4a11628f55a4df523b3ef60405160405180910390a4809150509392505050565b600073ffffffffffffffffffffffffffffffffffffffff168273ffffffffffffffffffffffffffffffffffffffff160361117c5760006040517f64a0ae920000000000000000000000000000000000000000000000000000000081526004016111739190611ca2565b60405180910390fd5b600061118a83836000610ef0565b9050600073ffffffffffffffffffffffffffffffffffffffff168173ffffffffffffffffffffffffffffffffffffffff16146111fe5760006040517f73c6ac6e0000000000000000000000000000000000000000000000000000000081526004016111f59190611ca2565b60405180910390fd5b505050565b61120b610ed6565b73ffffffffffffffffffffffffffffffffffffffff16611229610a9c565b73ffffffffffffffffffffffffffffffffffffffff16146112885761124c610ed6565b6040517f118cdaa700000000000000000000000000000000000000000000000000000000815260040161127f9190611ca2565b60405180910390fd5b565b6000600660009054906101000a900473ffffffffffffffffffffffffffffffffffffffff16905081600660006101000a81548173ffffffffffffffffffffffffffffffffffffffff021916908373ffffffffffffffffffffffffffffffffffffffff1602179055508173ffffffffffffffffffffffffffffffffffffffff168173ffffffffffffffffffffffffffffffffffffffff167f8be0079c531659141344cd1fd0a4f28419497f9722a3daafe3b4186f6b6457e060405160405180910390a35050565b600061135f6000836000610ef0565b9050600073ffffffffffffffffffffffffffffffffffffffff168173ffffffffffffffffffffffffffffffffffffffff16036113d257816040517f7e2732890000000000000000000000000000000000000000000000000000000081526004016113c99190611db8565b60405180910390fd5b5050565b600073ffffffffffffffffffffffffffffffffffffffff168273ffffffffffffffffffffffffffffffffffffffff160361144757816040517f5b08ba1800000000000000000000000000000000000000000000000000000000815260040161143e9190611ca2565b60405180910390fd5b80600560008573ffffffffffffffffffffffffffffffffffffffff1673ffffffffffffffffffffffffffffffffffffffff16815260200190815260200160002060008473ffffffffffffffffffffffffffffffffffffffff1673ffffffffffffffffffffffffffffffffffffffff16815260200190815260200160002060006101000a81548160ff0219169083151502179055508173ffffffffffffffffffffffffffffffffffffffff168373ffffffffffffffffffffffffffffffffffffffff167f17307eab39ab6107e8899845ad3d59bd9653f200f220920489ca2b5937696c31836040516115389190611b31565b60405180910390a3505050565b60008373ffffffffffffffffffffffffffffffffffffffff163b11156116ef578273ffffffffffffffffffffffffffffffffffffffff1663150b7a02868685856040518563ffffffff1660e01b81526004016115a49493929190612272565b6020604051808303816000875af19250505080156115e057506040513d601f19601f820116820180604052508101906115dd91906122d3565b60015b611664573d8060008114611610576040519150601f19603f3d011682016040523d82523d6000602084013e611615565b606091505b50600081510361165c57836040517f64a0ae920000000000000000000000000000000000000000000000000000000081526004016116539190611ca2565b60405180910390fd5b805160208201fd5b63150b7a0260e01b7bffffffffffffffffffffffffffffffffffffffffffffffffffffffff1916817bffffffffffffffffffffffffffffffffffffffffffffffffffffffff1916146116ed57836040517f64a0ae920000000000000000000000000000000000000000000000000000000081526004016116e49190611ca2565b60405180910390fd5b505b5050505050565b60006002600083815260200190815260200160002060009054906101000a900473ffffffffffffffffffffffffffffffffffffffff169050919050565b808061176c5750600073ffffffffffffffffffffffffffffffffffffffff168273ffffffffffffffffffffffffffffffffffffffff1614155b156118a057600061177c84610e11565b9050600073ffffffffffffffffffffffffffffffffffffffff168373ffffffffffffffffffffffffffffffffffffffff16141580156117e757508273ffffffffffffffffffffffffffffffffffffffff168173ffffffffffffffffffffffffffffffffffffffff1614155b80156117fa57506117f88184610c75565b155b1561183c57826040517fa9fbf51f0000000000000000000000000000000000000000000000000000000081526004016118339190611ca2565b60405180910390fd5b811561189e57838573ffffffffffffffffffffffffffffffffffffffff168273ffffffffffffffffffffffffffffffffffffffff167f8c5be1e5ebec7d5bd14f71427d1e84f3dd0314c0f7b2291e5b200ac8c7c3b92560405160405180910390a45b505b836004600085815260200190815260200160002060006101000a81548173ffffffffffffffffffffffffffffffffffffffff021916908373ffffffffffffffffffffffffffffffffffffffff16021790555050505050565b6119038383836119bc565b6119b757600073ffffffffffffffffffffffffffffffffffffffff168373ffffffffffffffffffffffffffffffffffffffff160361197857806040517f7e27328900000000000000000000000000000000000000000000000000000000815260040161196f9190611db8565b60405180910390fd5b81816040517f177e802f0000000000000000000000000000000000000000000000000000000081526004016119ae929190612300565b60405180910390fd5b505050565b60008073ffffffffffffffffffffffffffffffffffffffff168373ffffffffffffffffffffffffffffffffffffffff1614158015611a7457508273ffffffffffffffffffffffffffffffffffffffff168473ffffffffffffffffffffffffffffffffffffffff161480611a355750611a348484610c75565b5b80611a7357508273ffffffffffffffffffffffffffffffffffffffff16611a5b83610e99565b73ffffffffffffffffffffffffffffffffffffffff16145b5b90509392505050565b6000604051905090565b600080fd5b600080fd5b60007fffffffff0000000000000000000000000000000000000000000000000000000082169050919050565b611ac681611a91565b8114611ad157600080fd5b50565b600081359050611ae381611abd565b92915050565b600060208284031215611aff57611afe611a87565b5b6000611b0d84828501611ad4565b91505092915050565b60008115159050919050565b611b2b81611b16565b82525050565b6000602082019050611b466000830184611b22565b92915050565b600081519050919050565b600082825260208201905092915050565b60005b83811015611b86578082015181840152602081019050611b6b565b60008484015250505050565b6000601f19601f8301169050919050565b6000611bae82611b4c565b611bb88185611b57565b9350611bc8818560208601611b68565b611bd181611b92565b840191505092915050565b60006020820190508181036000830152611bf68184611ba3565b905092915050565b6000819050919050565b611c1181611bfe565b8114611c1c57600080fd5b50565b600081359050611c2e81611c08565b92915050565b600060208284031215611c4a57611c49611a87565b5b6000611c5884828501611c1f565b91505092915050565b600073ffffffffffffffffffffffffffffffffffffffff82169050919050565b6000611c8c82611c61565b9050919050565b611c9c81611c81565b82525050565b6000602082019050611cb76000830184611c93565b92915050565b611cc681611c81565b8114611cd157600080fd5b50565b600081359050611ce381611cbd565b92915050565b60008060408385031215611d0057611cff611a87565b5b6000611d0e85828601611cd4565b9250506020611d1f85828601611c1f565b9150509250929050565b600080600060608486031215611d4257611d41611a87565b5b6000611d5086828701611cd4565b9350506020611d6186828701611cd4565b9250506040611d7286828701611c1f565b9150509250925092565b600060208284031215611d9257611d91611a87565b5b6000611da084828501611cd4565b91505092915050565b611db281611bfe565b82525050565b6000602082019050611dcd6000830184611da9565b92915050565b611ddc81611b16565b8114611de757600080fd5b50565b600081359050611df981611dd3565b92915050565b60008060408385031215611e1657611e15611a87565b5b6000611e2485828601611cd4565b9250506020611e3585828601611dea565b9150509250929050565b600080fd5b600080fd5b7f4e487b7100000000000000000000000000000000000000000000000000000000600052604160045260246000fd5b611e8182611b92565b810181811067ffffffffffffffff82111715611ea057611e9f611e49565b5b80604052505050565b6000611eb3611a7d565b9050611ebf8282611e78565b919050565b600067ffffffffffffffff821115611edf57611ede611e49565b5b611ee882611b92565b9050602081019050919050565b82818337600083830152505050565b6000611f17611f1284611ec4565b611ea9565b905082815260208101848484011115611f3357611f32611e44565b5b611f3e848285611ef5565b509392505050565b600082601f830112611f5b57611f5a611e3f565b5b8135611f6b848260208601611f04565b91505092915050565b60008060008060808587031215611f8e57611f8d611a87565b5b6000611f9c87828801611cd4565b9450506020611fad87828801611cd4565b9350506040611fbe87828801611c1f565b925050606085013567ffffffffffffffff811115611fdf57611fde611a8c565b5b611feb87828801611f46565b91505092959194509250565b6000806040838503121561200e5761200d611a87565b5b600061201c85828601611cd4565b925050602061202d85828601611cd4565b9150509250929050565b7f4e487b7100000000000000000000000000000000000000000000000000000000600052602260045260246000fd5b6000600282049050600182168061207e57607f821691505b60208210810361209157612090612037565b5b50919050565b60006060820190506120ac6000830186611c93565b6120b96020830185611da9565b6120c66040830184611c93565b949350505050565b7f4f6e6c7920737562736372697074696f6e206d616e6167657200000000000000600082015250565b6000612104601983611b57565b915061210f826120ce565b602082019050919050565b60006020820190508181036000830152612133816120f7565b9050919050565b7f5573657220616c72656164792068617320746f6b656e00000000000000000000600082015250565b6000612170601683611b57565b915061217b8261213a565b602082019050919050565b6000602082019050818103600083015261219f81612163565b9050919050565b7f4e487b7100000000000000000000000000000000000000000000000000000000600052601160045260246000fd5b60006121e082611bfe565b91507fffffffffffffffffffffffffffffffffffffffffffffffffffffffffffffffff8203612212576122116121a6565b5b600182019050919050565b600081519050919050565b600082825260208201905092915050565b60006122448261221d565b61224e8185612228565b935061225e818560208601611b68565b61226781611b92565b840191505092915050565b60006080820190506122876000830187611c93565b6122946020830186611c93565b6122a16040830185611da9565b81810360608301526122b38184612239565b905095945050505050565b6000815190506122cd81611abd565b92915050565b6000602082840312156122e9576122e8611a87565b5b60006122f7848285016122be565b91505092915050565b60006040820190506123156000830185611c93565b6123226020830184611da9565b939250505056fe646174613a6170706c69636174696f6e2f6a736f6e3b6261736536342c65794a755957316c496a6f6956564e514945466a5932567a6379425159584e7a496977695a47567a59334a7063485270623234694f694a56626d6c325a584a7a595777675533566963324e7961584230615739754946427962335276593239734945466a5932567a6379425159584e7a49697769615731685a3255694f694a6b595852684f6d6c745957646c4c334e325a79743462577737596d467a5a5459304c464249546a4a616555497a595664534d4746454d476c4e616b463353576c436231705862473568534645355357704a643031445357646c527a467a596d354e4f556c746144426b5345453254486b354d32517a5933566b656b3131596a4e4b626b78365358644e52454632597a4e61626b6c70516a4a685631597a555730354e4642545358644a5245466e5457704264306c455358644e51306b725545684b62466b7a5557646b4d6d78725a45646e4f556c715358644e51306c6e5955645763466f796144425155306c35545552425a306c70516d31685633687a55464e4a616b31455158704f56464a4853576b344b314249556d786c5346466e5a5551776155315551576c4a534773355357705664306c70516d31685633687a55464e4a616d52486144424a61554a74596a49314d457859546e426c625655355357704a64306c70516a426c574649775446644764566b7961485a6a616a4270596c6473613170486547784a616a5657565446425a314658546d70615745353653555a4361474d7a5454684d4d314a735a5568524b3142444f58706b62574d72496e303da2646970667358221220f94d571e5f3320dc00eccb543262f8e6a17bfba05b5652148d04c86a32087f8964736f6c63430008140033",
  "linkReferences": {},
  "deployedLinkReferences": {}
}